{
  "contractName": "BattleForEther",
  "abi": [
    {
      "inputs": [
        {
          "internalType": "uint256",
          "name": "startDate_",
          "type": "uint256"
        },
        {
          "internalType": "uint256",
          "name": "endDate_",
          "type": "uint256"
        }
      ],
      "payable": false,
      "stateMutability": "nonpayable",
      "type": "constructor"
    },
    {
      "constant": true,
      "inputs": [],
      "name": "endDate",
      "outputs": [
        {
          "internalType": "uint256",
          "name": "",
          "type": "uint256"
        }
      ],
      "payable": false,
      "stateMutability": "view",
      "type": "function"
    },
    {
      "constant": true,
      "inputs": [],
      "name": "startDate",
      "outputs": [
        {
          "internalType": "uint256",
          "name": "",
          "type": "uint256"
        }
      ],
      "payable": false,
      "stateMutability": "view",
      "type": "function"
    },
    {
      "constant": false,
      "inputs": [],
      "name": "join",
      "outputs": [],
      "payable": false,
      "stateMutability": "nonpayable",
      "type": "function"
    }
  ],
  "bytecode": "0x608060405234801561001057600080fd5b506040516101933803806101938339818101604052604081101561003357600080fd5b810190808051906020019092919080519060200190929190505050816000819055508060018190555050506101268061006d6000396000f3fe6080604052348015600f57600080fd5b5060043610603c5760003560e01c80630b97bc86146041578063b688a36314605d578063c24a0f8b146065575b600080fd5b60476081565b6040518082815260200191505060405180910390f35b60636087565b005b606b60eb565b6040518082815260200191505060405180910390f35b60005481565b6000544210158015609a57506001544211155b60a257600080fd5b6040517f08c379a0000000000000000000000000000000000000000000000000000000008152600401808060200182810382526000815260200160200191505060405180910390fd5b6001548156fea265627a7a7231582019999abf522f984a1d6afea534524d88ed37e6441df0c9e1211f00a95ff6056364736f6c63430005100032",
  "source": "pragma solidity >=0.4.21 <0.7.0;\n\ncontract BattleForEther{\n    uint public startDate;\n    uint public endDate;\n\n    constructor(uint startDate_, uint endDate_) public {\n        startDate = startDate_;\n        endDate = endDate_;\n    }\n\n    modifier onlyDuringGame() {\n        require(now >= startDate && now <= endDate);\n        _;\n    }\n    function join() public onlyDuringGame {\n        revert(\"\");\n    }\n}",
  "sourcePath": "/home/sylvain/TUTO/smart-contracts-tdd-crash-course/contracts/BattleForEther.sol",
  "compiler": {
    "name": "solc",
    "version": "0.5.16+commit.9c3226ce.Emscripten.clang"
  },
  "schemaVersion": "3.1.0",
  "updatedAt": "2020-05-08T07:33:09.044Z",
  "devdoc": {
    "methods": {}
  },
  "userdoc": {
    "methods": {}
  }
}