{
  "contractName": "BattleForEther",
  "abi": [
    {
      "constant": true,
      "inputs": [],
      "name": "something",
      "outputs": [
        {
          "name": "",
          "type": "uint256"
        }
      ],
      "payable": false,
      "stateMutability": "view",
      "type": "function"
    },
    {
      "inputs": [
        {
          "name": "something_",
          "type": "uint256"
        }
      ],
      "payable": false,
      "stateMutability": "nonpayable",
      "type": "constructor"
    }
  ],
  "bytecode": "0x608060405234801561001057600080fd5b506040516020806100ef8339810180604052602081101561003057600080fd5b810190808051906020019092919050505080600081905550506098806100576000396000f3fe6080604052600436106039576000357c010000000000000000000000000000000000000000000000000000000090048063a7a0d53714603e575b600080fd5b348015604957600080fd5b5060506066565b6040518082815260200191505060405180910390f35b6000548156fea165627a7a723058208b4106fc0f3bc47db8240f0d3dbc501e0192a24bde956104db73cb39d3d879d00029",
  "source": "pragma solidity ^0.5.1;\n\ncontract BattleForEther{\n    uint public something;\n\n    constructor(uint something_) public {\n        something = something_;\n    }\n}",
  "sourcePath": "/Users/sylvain/TUTO/smart-contracts-tdd-crash-course/contracts/BattleForEther.sol",
  "compiler": {
    "name": "solc",
    "version": "0.5.1+commit.c8a2cb62.Emscripten.clang"
  },
  "schemaVersion": "3.1.0",
  "updatedAt": "2020-05-07T01:23:41.312Z",
  "devdoc": {
    "methods": {}
  },
  "userdoc": {
    "methods": {}
  }
}